{
  "_format": "hh-sol-artifact-1",
  "contractName": "DeviceManage",
  "sourceName": "contracts/DeviceManage.sol",
  "abi": [
    {
      "inputs": [
        {
          "internalType": "string",
          "name": "_name",
          "type": "string"
        },
        {
          "internalType": "string",
          "name": "_serialNumber",
          "type": "string"
        },
        {
          "internalType": "string",
          "name": "_location",
          "type": "string"
        }
      ],
      "name": "addDevice",
      "outputs": [],
      "stateMutability": "nonpayable",
      "type": "function"
    },
    {
      "inputs": [],
      "name": "getAllDevices",
      "outputs": [
        {
          "components": [
            {
              "internalType": "string",
              "name": "deviceName",
              "type": "string"
            },
            {
              "internalType": "string",
              "name": "serialNumber",
              "type": "string"
            },
            {
              "internalType": "string",
              "name": "location",
              "type": "string"
            }
          ],
          "internalType": "struct DeviceManage.Device[]",
          "name": "",
          "type": "tuple[]"
        }
      ],
      "stateMutability": "view",
      "type": "function"
    },
    {
      "inputs": [],
      "name": "getBalance",
      "outputs": [
        {
          "internalType": "uint256",
          "name": "",
          "type": "uint256"
        }
      ],
      "stateMutability": "view",
      "type": "function"
    },
    {
      "inputs": [
        {
          "internalType": "uint256",
          "name": "_id",
          "type": "uint256"
        }
      ],
      "name": "getDomain",
      "outputs": [
        {
          "components": [
            {
              "internalType": "string",
              "name": "deviceName",
              "type": "string"
            },
            {
              "internalType": "string",
              "name": "serialNumber",
              "type": "string"
            },
            {
              "internalType": "string",
              "name": "location",
              "type": "string"
            }
          ],
          "internalType": "struct DeviceManage.Device",
          "name": "",
          "type": "tuple"
        }
      ],
      "stateMutability": "view",
      "type": "function"
    },
    {
      "inputs": [],
      "name": "maxSupply",
      "outputs": [
        {
          "internalType": "uint256",
          "name": "",
          "type": "uint256"
        }
      ],
      "stateMutability": "view",
      "type": "function"
    },
    {
      "inputs": [],
      "name": "totalSupply",
      "outputs": [
        {
          "internalType": "uint256",
          "name": "",
          "type": "uint256"
        }
      ],
      "stateMutability": "view",
      "type": "function"
    }
  ],
  "bytecode": "0x608060405234801561001057600080fd5b50610f2d806100206000396000f3fe608060405234801561001057600080fd5b50600436106100625760003560e01c806312065fe01461006757806318160ddd146100855780631a7a98e2146100a35780633449fc60146100d35780637a2a530d146100ef578063d5abeb011461010d575b600080fd5b61006f61012b565b60405161007c91906106bd565b60405180910390f35b61008d610133565b60405161009a91906106bd565b60405180910390f35b6100bd60048036038101906100b89190610718565b610139565b6040516100ca9190610833565b60405180910390f35b6100ed60048036038101906100e8919061098a565b61031c565b005b6100f76103ef565b6040516101049190610b51565b60405180910390f35b61011561067d565b60405161012291906106bd565b60405180910390f35b600047905090565b60015481565b610141610683565b6002600083815260200190815260200160002060405180606001604052908160008201805461016f90610ba2565b80601f016020809104026020016040519081016040528092919081815260200182805461019b90610ba2565b80156101e85780601f106101bd576101008083540402835291602001916101e8565b820191906000526020600020905b8154815290600101906020018083116101cb57829003601f168201915b5050505050815260200160018201805461020190610ba2565b80601f016020809104026020016040519081016040528092919081815260200182805461022d90610ba2565b801561027a5780601f1061024f5761010080835404028352916020019161027a565b820191906000526020600020905b81548152906001019060200180831161025d57829003601f168201915b5050505050815260200160028201805461029390610ba2565b80601f01602080910402602001604051908101604052809291908181526020018280546102bf90610ba2565b801561030c5780601f106102e15761010080835404028352916020019161030c565b820191906000526020600020905b8154815290600101906020018083116102ef57829003601f168201915b5050505050815250509050919050565b60008081548092919061032e90610c02565b91905055506001600081548092919061034690610c02565b91905055506040518060600160405280848152602001838152602001828152506002600080548152602001908152602001600020600082015181600001908161038f9190610df6565b5060208201518160010190816103a59190610df6565b5060408201518160020190816103bb9190610df6565b5090505060036000549080600181540180825580915050600190039060005260206000200160009091909190915055505050565b6060600060015467ffffffffffffffff81111561040f5761040e61085f565b5b60405190808252806020026020018201604052801561044857816020015b610435610683565b81526020019060019003908161042d5790505b50905060005b6001548110156106755760026000600383815481106104705761046f610ec8565b5b906000526020600020015481526020019081526020016000206040518060600160405290816000820180546104a490610ba2565b80601f01602080910402602001604051908101604052809291908181526020018280546104d090610ba2565b801561051d5780601f106104f25761010080835404028352916020019161051d565b820191906000526020600020905b81548152906001019060200180831161050057829003601f168201915b5050505050815260200160018201805461053690610ba2565b80601f016020809104026020016040519081016040528092919081815260200182805461056290610ba2565b80156105af5780601f10610584576101008083540402835291602001916105af565b820191906000526020600020905b81548152906001019060200180831161059257829003601f168201915b505050505081526020016002820180546105c890610ba2565b80601f01602080910402602001604051908101604052809291908181526020018280546105f490610ba2565b80156106415780601f1061061657610100808354040283529160200191610641565b820191906000526020600020905b81548152906001019060200180831161062457829003601f168201915b50505050508152505082828151811061065d5761065c610ec8565b5b6020026020010181905250808060010191505061044e565b508091505090565b60005481565b60405180606001604052806060815260200160608152602001606081525090565b6000819050919050565b6106b7816106a4565b82525050565b60006020820190506106d260008301846106ae565b92915050565b6000604051905090565b600080fd5b600080fd5b6106f5816106a4565b811461070057600080fd5b50565b600081359050610712816106ec565b92915050565b60006020828403121561072e5761072d6106e2565b5b600061073c84828501610703565b91505092915050565b600081519050919050565b600082825260208201905092915050565b60005b8381101561077f578082015181840152602081019050610764565b60008484015250505050565b6000601f19601f8301169050919050565b60006107a782610745565b6107b18185610750565b93506107c1818560208601610761565b6107ca8161078b565b840191505092915050565b600060608301600083015184820360008601526107f2828261079c565b9150506020830151848203602086015261080c828261079c565b91505060408301518482036040860152610826828261079c565b9150508091505092915050565b6000602082019050818103600083015261084d81846107d5565b905092915050565b600080fd5b600080fd5b7f4e487b7100000000000000000000000000000000000000000000000000000000600052604160045260246000fd5b6108978261078b565b810181811067ffffffffffffffff821117156108b6576108b561085f565b5b80604052505050565b60006108c96106d8565b90506108d5828261088e565b919050565b600067ffffffffffffffff8211156108f5576108f461085f565b5b6108fe8261078b565b9050602081019050919050565b82818337600083830152505050565b600061092d610928846108da565b6108bf565b9050828152602081018484840111156109495761094861085a565b5b61095484828561090b565b509392505050565b600082601f83011261097157610970610855565b5b813561098184826020860161091a565b91505092915050565b6000806000606084860312156109a3576109a26106e2565b5b600084013567ffffffffffffffff8111156109c1576109c06106e7565b5b6109cd8682870161095c565b935050602084013567ffffffffffffffff8111156109ee576109ed6106e7565b5b6109fa8682870161095c565b925050604084013567ffffffffffffffff811115610a1b57610a1a6106e7565b5b610a278682870161095c565b9150509250925092565b600081519050919050565b600082825260208201905092915050565b6000819050602082019050919050565b60006060830160008301518482036000860152610a7a828261079c565b91505060208301518482036020860152610a94828261079c565b91505060408301518482036040860152610aae828261079c565b9150508091505092915050565b6000610ac78383610a5d565b905092915050565b6000602082019050919050565b6000610ae782610a31565b610af18185610a3c565b935083602082028501610b0385610a4d565b8060005b85811015610b3f5784840389528151610b208582610abb565b9450610b2b83610acf565b925060208a01995050600181019050610b07565b50829750879550505050505092915050565b60006020820190508181036000830152610b6b8184610adc565b905092915050565b7f4e487b7100000000000000000000000000000000000000000000000000000000600052602260045260246000fd5b60006002820490506001821680610bba57607f821691505b602082108103610bcd57610bcc610b73565b5b50919050565b7f4e487b7100000000000000000000000000000000000000000000000000000000600052601160045260246000fd5b6000610c0d826106a4565b91507fffffffffffffffffffffffffffffffffffffffffffffffffffffffffffffffff8203610c3f57610c3e610bd3565b5b600182019050919050565b60008190508160005260206000209050919050565b60006020601f8301049050919050565b600082821b905092915050565b600060088302610cac7fffffffffffffffffffffffffffffffffffffffffffffffffffffffffffffffff82610c6f565b610cb68683610c6f565b95508019841693508086168417925050509392505050565b6000819050919050565b6000610cf3610cee610ce9846106a4565b610cce565b6106a4565b9050919050565b6000819050919050565b610d0d83610cd8565b610d21610d1982610cfa565b848454610c7c565b825550505050565b600090565b610d36610d29565b610d41818484610d04565b505050565b5b81811015610d6557610d5a600082610d2e565b600181019050610d47565b5050565b601f821115610daa57610d7b81610c4a565b610d8484610c5f565b81016020851015610d93578190505b610da7610d9f85610c5f565b830182610d46565b50505b505050565b600082821c905092915050565b6000610dcd60001984600802610daf565b1980831691505092915050565b6000610de68383610dbc565b9150826002028217905092915050565b610dff82610745565b67ffffffffffffffff811115610e1857610e1761085f565b5b610e228254610ba2565b610e2d828285610d69565b600060209050601f831160018114610e605760008415610e4e578287015190505b610e588582610dda565b865550610ec0565b601f198416610e6e86610c4a565b60005b82811015610e9657848901518255600182019150602085019450602081019050610e71565b86831015610eb35784890151610eaf601f891682610dbc565b8355505b6001600288020188555050505b505050505050565b7f4e487b7100000000000000000000000000000000000000000000000000000000600052603260045260246000fdfea26469706673582212206f1baec035363fd9c51653a471ee6715db74e164700984051c8300f6fbefe90d64736f6c63430008180033",
  "linkReferences": {},
  "deployedLinkReferences": {}
}